{
  "contractName": "ArtistManagement",
  "abi": [
    {
      "constant": true,
      "inputs": [
        {
          "name": "",
          "type": "uint256"
        }
      ],
      "name": "managers",
      "outputs": [
        {
          "name": "name",
          "type": "string"
        },
        {
          "name": "addr",
          "type": "address"
        },
        {
          "name": "salary",
          "type": "uint256"
        },
        {
          "name": "managerId",
          "type": "uint256"
        }
      ],
      "payable": false,
      "stateMutability": "view",
      "type": "function"
    },
    {
      "constant": true,
      "inputs": [],
      "name": "stopped",
      "outputs": [
        {
          "name": "",
          "type": "bool"
        }
      ],
      "payable": false,
      "stateMutability": "view",
      "type": "function"
    },
    {
      "constant": true,
      "inputs": [
        {
          "name": "",
          "type": "uint256"
        }
      ],
      "name": "music",
      "outputs": [
        {
          "name": "name",
          "type": "string"
        },
        {
          "name": "genre",
          "type": "string"
        },
        {
          "name": "ipfsHash",
          "type": "string"
        },
        {
          "name": "musicstate",
          "type": "uint8"
        },
        {
          "name": "price",
          "type": "uint256"
        },
        {
          "name": "musicId",
          "type": "uint256"
        },
        {
          "name": "buyer",
          "type": "address"
        }
      ],
      "payable": false,
      "stateMutability": "view",
      "type": "function"
    },
    {
      "constant": true,
      "inputs": [
        {
          "name": "",
          "type": "uint256"
        }
      ],
      "name": "artists",
      "outputs": [
        {
          "name": "name",
          "type": "string"
        },
        {
          "name": "citizenship",
          "type": "string"
        },
        {
          "name": "age",
          "type": "uint256"
        },
        {
          "name": "artistId",
          "type": "uint256"
        },
        {
          "name": "artist",
          "type": "address"
        }
      ],
      "payable": false,
      "stateMutability": "view",
      "type": "function"
    },
    {
      "constant": true,
      "inputs": [
        {
          "name": "",
          "type": "uint256"
        }
      ],
      "name": "catalog",
      "outputs": [
        {
          "name": "name",
          "type": "string"
        },
        {
          "name": "genre",
          "type": "string"
        },
        {
          "name": "ipfsHash",
          "type": "string"
        },
        {
          "name": "musicstate",
          "type": "uint8"
        },
        {
          "name": "price",
          "type": "uint256"
        },
        {
          "name": "musicId",
          "type": "uint256"
        },
        {
          "name": "buyer",
          "type": "address"
        }
      ],
      "payable": false,
      "stateMutability": "view",
      "type": "function"
    },
    {
      "inputs": [],
      "payable": false,
      "stateMutability": "nonpayable",
      "type": "constructor"
    },
    {
      "anonymous": false,
      "inputs": [
        {
          "indexed": false,
          "name": "musicId",
          "type": "uint256"
        }
      ],
      "name": "LogForSale",
      "type": "event"
    },
    {
      "anonymous": false,
      "inputs": [
        {
          "indexed": false,
          "name": "musicId",
          "type": "uint256"
        }
      ],
      "name": "LogSold",
      "type": "event"
    },
    {
      "anonymous": false,
      "inputs": [
        {
          "indexed": false,
          "name": "name",
          "type": "string"
        },
        {
          "indexed": false,
          "name": "citizenship",
          "type": "string"
        },
        {
          "indexed": false,
          "name": "age",
          "type": "uint256"
        }
      ],
      "name": "Logaddartist",
      "type": "event"
    },
    {
      "anonymous": false,
      "inputs": [
        {
          "indexed": false,
          "name": "name",
          "type": "string"
        },
        {
          "indexed": false,
          "name": "genre",
          "type": "string"
        },
        {
          "indexed": false,
          "name": "m",
          "type": "string"
        },
        {
          "indexed": false,
          "name": "price",
          "type": "uint256"
        }
      ],
      "name": "Logaddmusic",
      "type": "event"
    },
    {
      "anonymous": false,
      "inputs": [
        {
          "indexed": false,
          "name": "name",
          "type": "string"
        },
        {
          "indexed": false,
          "name": "addr",
          "type": "address"
        },
        {
          "indexed": false,
          "name": "salary",
          "type": "uint256"
        }
      ],
      "name": "Logaddmanager",
      "type": "event"
    },
    {
      "anonymous": false,
      "inputs": [
        {
          "indexed": false,
          "name": "managerid",
          "type": "uint256"
        }
      ],
      "name": "Loghiremanager",
      "type": "event"
    },
    {
      "constant": false,
      "inputs": [
        {
          "name": "_name",
          "type": "string"
        },
        {
          "name": "_citizenship",
          "type": "string"
        },
        {
          "name": "_age",
          "type": "uint256"
        }
      ],
      "name": "addartist",
      "outputs": [
        {
          "name": "",
          "type": "uint256"
        }
      ],
      "payable": false,
      "stateMutability": "nonpayable",
      "type": "function"
    },
    {
      "constant": false,
      "inputs": [
        {
          "name": "name",
          "type": "string"
        },
        {
          "name": "genre",
          "type": "string"
        },
        {
          "name": "m",
          "type": "string"
        },
        {
          "name": "price",
          "type": "uint256"
        },
        {
          "name": "artistId",
          "type": "uint256"
        }
      ],
      "name": "addmusic",
      "outputs": [],
      "payable": false,
      "stateMutability": "nonpayable",
      "type": "function"
    },
    {
      "constant": false,
      "inputs": [
        {
          "name": "_musicId",
          "type": "uint256"
        },
        {
          "name": "_artistId",
          "type": "uint256"
        }
      ],
      "name": "buymusic",
      "outputs": [],
      "payable": true,
      "stateMutability": "payable",
      "type": "function"
    },
    {
      "constant": false,
      "inputs": [
        {
          "name": "_name",
          "type": "string"
        },
        {
          "name": "salary",
          "type": "uint256"
        }
      ],
      "name": "addmanager",
      "outputs": [
        {
          "name": "",
          "type": "uint256"
        }
      ],
      "payable": false,
      "stateMutability": "nonpayable",
      "type": "function"
    },
    {
      "constant": false,
      "inputs": [
        {
          "name": "managerid",
          "type": "uint256"
        },
        {
          "name": "periodinmonths",
          "type": "uint256"
        }
      ],
      "name": "hiremanager",
      "outputs": [],
      "payable": true,
      "stateMutability": "payable",
      "type": "function"
    },
    {
      "constant": true,
      "inputs": [
        {
          "name": "_artistid",
          "type": "uint256"
        }
      ],
      "name": "fetchArtist",
      "outputs": [
        {
          "name": "name",
          "type": "string"
        },
        {
          "name": "citizenship",
          "type": "string"
        },
        {
          "name": "age",
          "type": "uint256"
        },
        {
          "name": "artistId",
          "type": "uint256"
        },
        {
          "name": "artist",
          "type": "address"
        }
      ],
      "payable": false,
      "stateMutability": "view",
      "type": "function"
    },
    {
      "constant": true,
      "inputs": [
        {
          "name": "_musicid",
          "type": "uint256"
        }
      ],
      "name": "fetchMusic",
      "outputs": [
        {
          "name": "name",
          "type": "string"
        },
        {
          "name": "genre",
          "type": "string"
        },
        {
          "name": "ipfsHash",
          "type": "string"
        },
        {
          "name": "musicstate",
          "type": "uint256"
        },
        {
          "name": "price",
          "type": "uint256"
        },
        {
          "name": "musicId",
          "type": "uint256"
        },
        {
          "name": "buyer",
          "type": "address"
        }
      ],
      "payable": false,
      "stateMutability": "view",
      "type": "function"
    },
    {
      "constant": true,
      "inputs": [
        {
          "name": "_managerid",
          "type": "uint256"
        }
      ],
      "name": "fetchManager",
      "outputs": [
        {
          "name": "name",
          "type": "string"
        },
        {
          "name": "addr",
          "type": "address"
        },
        {
          "name": "salary",
          "type": "uint256"
        },
        {
          "name": "managerId",
          "type": "uint256"
        }
      ],
      "payable": false,
      "stateMutability": "view",
      "type": "function"
    }
  ],
  "bytecode": "0x60806040526000605f60006101000a81548160ff02191690831515021790555034801561002b57600080fd5b506000809054906101000a9050506000600181905550600060028190555060006003819055506122ba806100606000396000f3fe6080604052600436106100c25760003560e01c80639eb476671161007f578063b6178f1411610059578063b6178f14146102b5578063cd7e10c1146102f8578063ea5de25b14610339578063fee80e001461037c576100c2565b80639eb47667146101f5578063aa9072b314610238578063ada809e414610275576100c2565b806335e160d7146100c75780633d39c260146101045780637483b1ff1461014457806374dda8c91461018557806375f12b21146101ae578063863d5792146101d9575b600080fd5b3480156100d357600080fd5b506100ee60048036036100e99190810190611b54565b610398565b6040516100fb91906120b9565b60405180910390f35b34801561011057600080fd5b5061012b60048036036101269190810190611ba8565b6104bb565b60405161013b9493929190611f68565b60405180910390f35b34801561015057600080fd5b5061016b60048036036101669190810190611ba8565b6105a3565b60405161017c959493929190611f07565b60405180910390f35b34801561019157600080fd5b506101ac60048036036101a79190810190611a16565b610790565b005b3480156101ba57600080fd5b506101c36109da565b6040516101d09190611d3f565b60405180910390f35b6101f360048036036101ee9190810190611bd1565b6109ed565b005b34801561020157600080fd5b5061021c60048036036102179190810190611ba8565b610af9565b60405161022f9796959493929190611fb4565b60405180910390f35b34801561024457600080fd5b5061025f600480360361025a9190810190611ad5565b610d30565b60405161026c91906120b9565b60405180910390f35b34801561028157600080fd5b5061029c60048036036102979190810190611ba8565b610e77565b6040516102ac9493929190611d98565b60405180910390f35b3480156102c157600080fd5b506102dc60048036036102d79190810190611ba8565b610fad565b6040516102ef9796959493929190611e3e565b60405180910390f35b34801561030457600080fd5b5061031f600480360361031a9190810190611ba8565b611287565b604051610330959493929190612038565b60405180910390f35b34801561034557600080fd5b50610360600480360361035b9190810190611ba8565b61140d565b6040516103739796959493929190611fb4565b60405180910390f35b61039660048036036103919190810190611bd1565b611647565b005b600060036000815480929190600101919050555060405180608001604052808481526020013373ffffffffffffffffffffffffffffffffffffffff1681526020018381526020016003548152506062600060035481526020019081526020016000206000820151816000019080519060200190610416929190611908565b5060208201518160010160006101000a81548173ffffffffffffffffffffffffffffffffffffffff021916908373ffffffffffffffffffffffffffffffffffffffff16021790555060408201518160020155606082015181600301559050507f309d310eed61de05425fbdbd02a4093b890889d82f37c21f77b33182c42372428333846040516104a893929190611d5a565b60405180910390a1600354905092915050565b6062602052806000526040600020600091509050806000018054600181600116156101000203166002900480601f0160208091040260200160405190810160405280929190818152602001828054600181600116156101000203166002900480156105675780601f1061053c57610100808354040283529160200191610567565b820191906000526020600020905b81548152906001019060200180831161054a57829003601f168201915b5050505050908060010160009054906101000a900473ffffffffffffffffffffffffffffffffffffffff16908060020154908060030154905084565b6060806000806000606060008781526020019081526020016000206000018054600181600116156101000203166002900480601f0160208091040260200160405190810160405280929190818152602001828054600181600116156101000203166002900480156106555780601f1061062a57610100808354040283529160200191610655565b820191906000526020600020905b81548152906001019060200180831161063857829003601f168201915b50505050509450606060008781526020019081526020016000206001018054600181600116156101000203166002900480601f0160208091040260200160405190810160405280929190818152602001828054600181600116156101000203166002900480156107065780601f106106db57610100808354040283529160200191610706565b820191906000526020600020905b8154815290600101906020018083116106e957829003601f168201915b5050505050935060606000878152602001908152602001600020600201549250606060008781526020019081526020016000206003015491506060600087815260200190815260200160002060040160009054906101000a900473ffffffffffffffffffffffffffffffffffffffff16905084848484849450945094509450945091939590929450565b806060600082815260200190815260200160002060040160009054906101000a900473ffffffffffffffffffffffffffffffffffffffff1673ffffffffffffffffffffffffffffffffffffffff163373ffffffffffffffffffffffffffffffffffffffff16146107ff57600080fd5b6001600081548092919060010191905055506040518060e001604052808781526020018681526020018581526020016000600181111561083b57fe5b81526020018481526020016001548152602001600073ffffffffffffffffffffffffffffffffffffffff16815250606160006001548152602001908152602001600020600082015181600001908051906020019061089a929190611908565b5060208201518160010190805190602001906108b7929190611908565b5060408201518160020190805190602001906108d4929190611908565b5060608201518160030160006101000a81548160ff021916908360018111156108f957fe5b02179055506080820151816004015560a0820151816005015560c08201518160060160006101000a81548173ffffffffffffffffffffffffffffffffffffffff021916908373ffffffffffffffffffffffffffffffffffffffff1602179055509050507f0a90a09ea055bf1e6036006512fc02b06892d5d6188400abf18f5a6d3c64cbfa868686866040516109919493929190611de4565b60405180910390a17f4627c48065af2a9648cbecdd4b9da340c00e501243cd49a8a71c30c987e8b7616001546040516109ca91906120b9565b60405180910390a1505050505050565b605f60009054906101000a900460ff1681565b605f60009054906101000a900460ff16610a0657600080fd5b60008111610a1357600080fd5b6000610a3e60626000858152602001908152602001600020600201548361189890919063ffffffff16565b90506062600084815260200190815260200160002060010160009054906101000a900473ffffffffffffffffffffffffffffffffffffffff1673ffffffffffffffffffffffffffffffffffffffff166108fc829081150290604051600060405180830381858888f19350505050158015610abc573d6000803e3d6000fd5b507fa9e8cf93b78d3d252a506d8dc5186d2bd2aec876cc60dc80d661088e8d928a2c83604051610aec91906120b9565b60405180910390a1505050565b6061602052806000526040600020600091509050806000018054600181600116156101000203166002900480601f016020809104026020016040519081016040528092919081815260200182805460018160011615610100020316600290048015610ba55780601f10610b7a57610100808354040283529160200191610ba5565b820191906000526020600020905b815481529060010190602001808311610b8857829003601f168201915b505050505090806001018054600181600116156101000203166002900480601f016020809104026020016040519081016040528092919081815260200182805460018160011615610100020316600290048015610c435780601f10610c1857610100808354040283529160200191610c43565b820191906000526020600020905b815481529060010190602001808311610c2657829003601f168201915b505050505090806002018054600181600116156101000203166002900480601f016020809104026020016040519081016040528092919081815260200182805460018160011615610100020316600290048015610ce15780601f10610cb657610100808354040283529160200191610ce1565b820191906000526020600020905b815481529060010190602001808311610cc457829003601f168201915b5050505050908060030160009054906101000a900460ff16908060040154908060050154908060060160009054906101000a900473ffffffffffffffffffffffffffffffffffffffff16905087565b60006002600081548092919060010191905055506040518060a0016040528085815260200184815260200183815260200160025481526020013373ffffffffffffffffffffffffffffffffffffffff168152506060600060025481526020019081526020016000206000820151816000019080519060200190610db4929190611908565b506020820151816001019080519060200190610dd1929190611908565b50604082015181600201556060820151816003015560808201518160040160006101000a81548173ffffffffffffffffffffffffffffffffffffffff021916908373ffffffffffffffffffffffffffffffffffffffff1602179055509050507f4994a67ff699a32ed7b2b9029cdd28daac8955f4e8ff8ba0caabf9dc2794f2a6848484604051610e6393929190611ec2565b60405180910390a160025490509392505050565b60606000806000606260008681526020019081526020016000206000018054600181600116156101000203166002900480601f016020809104026020016040519081016040528092919081815260200182805460018160011615610100020316600290048015610f285780601f10610efd57610100808354040283529160200191610f28565b820191906000526020600020905b815481529060010190602001808311610f0b57829003601f168201915b505050505093506062600086815260200190815260200160002060010160009054906101000a900473ffffffffffffffffffffffffffffffffffffffff16925060626000868152602001908152602001600020600201549150606260008681526020019081526020016000206003015490508383838393509350935093509193509193565b6060806060600080600080606160008981526020019081526020016000206000018054600181600116156101000203166002900480601f0160208091040260200160405190810160405280929190818152602001828054600181600116156101000203166002900480156110625780601f1061103757610100808354040283529160200191611062565b820191906000526020600020905b81548152906001019060200180831161104557829003601f168201915b50505050509650606160008981526020019081526020016000206001018054600181600116156101000203166002900480601f0160208091040260200160405190810160405280929190818152602001828054600181600116156101000203166002900480156111135780601f106110e857610100808354040283529160200191611113565b820191906000526020600020905b8154815290600101906020018083116110f657829003601f168201915b50505050509550606160008981526020019081526020016000206002018054600181600116156101000203166002900480601f0160208091040260200160405190810160405280929190818152602001828054600181600116156101000203166002900480156111c45780601f10611199576101008083540402835291602001916111c4565b820191906000526020600020905b8154815290600101906020018083116111a757829003601f168201915b505050505094506061600089815260200190815260200160002060030160009054906101000a900460ff1660018111156111fa57fe5b935060616000898152602001908152602001600020600401549250606160008981526020019081526020016000206005015491506061600089815260200190815260200160002060060160009054906101000a900473ffffffffffffffffffffffffffffffffffffffff169050868686868686869650965096509650965096509650919395979092949650565b6060602052806000526040600020600091509050806000018054600181600116156101000203166002900480601f0160208091040260200160405190810160405280929190818152602001828054600181600116156101000203166002900480156113335780601f1061130857610100808354040283529160200191611333565b820191906000526020600020905b81548152906001019060200180831161131657829003601f168201915b505050505090806001018054600181600116156101000203166002900480601f0160208091040260200160405190810160405280929190818152602001828054600181600116156101000203166002900480156113d15780601f106113a6576101008083540402835291602001916113d1565b820191906000526020600020905b8154815290600101906020018083116113b457829003601f168201915b5050505050908060020154908060030154908060040160009054906101000a900473ffffffffffffffffffffffffffffffffffffffff16905085565b600481600d811061141a57fe5b60070201600091509050806000018054600181600116156101000203166002900480601f0160208091040260200160405190810160405280929190818152602001828054600181600116156101000203166002900480156114bc5780601f10611491576101008083540402835291602001916114bc565b820191906000526020600020905b81548152906001019060200180831161149f57829003601f168201915b505050505090806001018054600181600116156101000203166002900480601f01602080910402602001604051908101604052809291908181526020018280546001816001161561010002031660029004801561155a5780601f1061152f5761010080835404028352916020019161155a565b820191906000526020600020905b81548152906001019060200180831161153d57829003601f168201915b505050505090806002018054600181600116156101000203166002900480601f0160208091040260200160405190810160405280929190818152602001828054600181600116156101000203166002900480156115f85780601f106115cd576101008083540402835291602001916115f8565b820191906000526020600020905b8154815290600101906020018083116115db57829003601f168201915b5050505050908060030160009054906101000a900460ff16908060040154908060050154908060060160009054906101000a900473ffffffffffffffffffffffffffffffffffffffff16905087565b8160006061600083815260200190815260200160002060030160006101000a81548160ff0219169083600181111561167b57fe5b021790555082605f60009054906101000a900460ff1661169a57600080fd5b336061600086815260200190815260200160002060060160006101000a81548173ffffffffffffffffffffffffffffffffffffffff021916908373ffffffffffffffffffffffffffffffffffffffff1602179055506060600084815260200190815260200160002060040160009054906101000a900473ffffffffffffffffffffffffffffffffffffffff1673ffffffffffffffffffffffffffffffffffffffff166108fc60616000878152602001908152602001600020600401549081150290604051600060405180830381858888f19350505050158015611781573d6000803e3d6000fd5b5060016061600086815260200190815260200160002060030160006101000a81548160ff021916908360018111156117b557fe5b02179055507fe64ca8c671e48636f85f3008c1dd538e36bfa74fb6f2790b56b72fcc33b879ef846040516117e991906120b9565b60405180910390a1600060616000838152602001908152602001600020600401549050600081340390506061600084815260200190815260200160002060060160009054906101000a900473ffffffffffffffffffffffffffffffffffffffff1673ffffffffffffffffffffffffffffffffffffffff166108fc829081150290604051600060405180830381858888f1935050505015801561188f573d6000803e3d6000fd5b50505050505050565b6000808314156118ab5760009050611902565b60008284029050828482816118bc57fe5b04146118fd576040517f08c379a00000000000000000000000000000000000000000000000000000000081526004016118f490612099565b60405180910390fd5b809150505b92915050565b828054600181600116156101000203166002900490600052602060002090601f016020900481019282601f1061194957805160ff1916838001178555611977565b82800160010185558215611977579182015b8281111561197657825182559160200191906001019061195b565b5b5090506119849190611988565b5090565b6119aa91905b808211156119a657600081600090555060010161198e565b5090565b90565b600082601f8301126119be57600080fd5b81356119d16119cc82612101565b6120d4565b915080825260208301602083018583830111156119ed57600080fd5b6119f8838284612209565b50505092915050565b600081359050611a1081612269565b92915050565b600080600080600060a08688031215611a2e57600080fd5b600086013567ffffffffffffffff811115611a4857600080fd5b611a54888289016119ad565b955050602086013567ffffffffffffffff811115611a7157600080fd5b611a7d888289016119ad565b945050604086013567ffffffffffffffff811115611a9a57600080fd5b611aa6888289016119ad565b9350506060611ab788828901611a01565b9250506080611ac888828901611a01565b9150509295509295909350565b600080600060608486031215611aea57600080fd5b600084013567ffffffffffffffff811115611b0457600080fd5b611b10868287016119ad565b935050602084013567ffffffffffffffff811115611b2d57600080fd5b611b39868287016119ad565b9250506040611b4a86828701611a01565b9150509250925092565b60008060408385031215611b6757600080fd5b600083013567ffffffffffffffff811115611b8157600080fd5b611b8d858286016119ad565b9250506020611b9e85828601611a01565b9150509250929050565b600060208284031215611bba57600080fd5b6000611bc884828501611a01565b91505092915050565b60008060408385031215611be457600080fd5b6000611bf285828601611a01565b9250506020611c0385828601611a01565b9150509250929050565b611c16816121c1565b82525050565b611c2581612166565b82525050565b611c3481612154565b82525050565b611c4381612178565b82525050565b611c52816121d3565b82525050565b6000611c6382612138565b611c6d8185612143565b9350611c7d818560208601612218565b611c868161224b565b840191505092915050565b6000611c9c8261212d565b611ca68185612143565b9350611cb6818560208601612218565b611cbf8161224b565b840191505092915050565b6000611cd7602183612143565b91507f536166654d6174683a206d756c7469706c69636174696f6e206f766572666c6f60008301527f77000000000000000000000000000000000000000000000000000000000000006020830152604082019050919050565b611d39816121b7565b82525050565b6000602082019050611d546000830184611c3a565b92915050565b60006060820190508181036000830152611d748186611c58565b9050611d836020830185611c0d565b611d906040830184611d30565b949350505050565b60006080820190508181036000830152611db28187611c58565b9050611dc16020830186611c2b565b611dce6040830185611d30565b611ddb6060830184611d30565b95945050505050565b60006080820190508181036000830152611dfe8187611c58565b90508181036020830152611e128186611c58565b90508181036040830152611e268185611c58565b9050611e356060830184611d30565b95945050505050565b600060e0820190508181036000830152611e58818a611c58565b90508181036020830152611e6c8189611c58565b90508181036040830152611e808188611c58565b9050611e8f6060830187611d30565b611e9c6080830186611d30565b611ea960a0830185611d30565b611eb660c0830184611c2b565b98975050505050505050565b60006060820190508181036000830152611edc8186611c58565b90508181036020830152611ef08185611c58565b9050611eff6040830184611d30565b949350505050565b600060a0820190508181036000830152611f218188611c58565b90508181036020830152611f358187611c58565b9050611f446040830186611d30565b611f516060830185611d30565b611f5e6080830184611c2b565b9695505050505050565b60006080820190508181036000830152611f828187611c91565b9050611f916020830186611c1c565b611f9e6040830185611d30565b611fab6060830184611d30565b95945050505050565b600060e0820190508181036000830152611fce818a611c91565b90508181036020830152611fe28189611c91565b90508181036040830152611ff68188611c91565b90506120056060830187611c49565b6120126080830186611d30565b61201f60a0830185611d30565b61202c60c0830184611c1c565b98975050505050505050565b600060a08201905081810360008301526120528188611c91565b905081810360208301526120668187611c91565b90506120756040830186611d30565b6120826060830185611d30565b61208f6080830184611c1c565b9695505050505050565b600060208201905081810360008301526120b281611cca565b9050919050565b60006020820190506120ce6000830184611d30565b92915050565b6000604051905081810181811067ffffffffffffffff821117156120f757600080fd5b8060405250919050565b600067ffffffffffffffff82111561211857600080fd5b601f19601f8301169050602081019050919050565b600081519050919050565b600081519050919050565b600082825260208201905092915050565b600061215f82612197565b9050919050565b600061217182612197565b9050919050565b60008115159050919050565b60008190506121928261225c565b919050565b600073ffffffffffffffffffffffffffffffffffffffff82169050919050565b6000819050919050565b60006121cc826121e5565b9050919050565b60006121de82612184565b9050919050565b60006121f0826121f7565b9050919050565b600061220282612197565b9050919050565b82818337600083830152505050565b60005b8381101561223657808201518184015260208101905061221b565b83811115612245576000848401525b50505050565b6000601f19601f8301169050919050565b6002811061226657fe5b50565b612272816121b7565b811461227d57600080fd5b5056fea265627a7a72305820ec8e955b4366209aa9f0041295971b35ecf409a7e838a85f408583173ef0a5536c6578706572696d656e74616cf50037",
  "source": "pragma solidity >=0.4.22 <0.8.0;\npragma experimental ABIEncoderV2;\n\nimport \"./SafeMath.sol\";\n\n/// @title An artist management dapp\n/// @author Peter Ndiritu\n/// @notice You can use this contract to manage artist activities on a basic level\n/// @dev All function calls are currently implemented without side effects\ncontract ArtistManagement {\n    using SafeMath for uint256;\n\n    address owner;\n    uint256 private musicidCount;\n    uint256 private artistCount;\n    uint256 private managerCount;\n    enum State {ForSale, Sold}\n\n    event LogForSale(uint256 musicId);\n    event LogSold(uint256 musicId);\n    event Logaddartist(string name, string citizenship, uint256 age);\n    event Logaddmusic(string name, string genre, string m, uint256 price);\n    event Logaddmanager(string name, address addr, uint256 salary);\n    event Loghiremanager(uint256 managerid);\n\n    struct Manager {\n        string name;\n        address payable addr;\n        uint256 salary;\n        uint256 managerId;\n    }\n    struct Artist {\n        string name;\n        string citizenship;\n        uint256 age;\n        uint256 artistId;\n        address payable artist;\n    }\n    struct Music {\n        string name;\n        string genre;\n        string ipfsHash;\n        State musicstate;\n        uint256 price;\n        uint256 musicId;\n        address payable buyer;\n    }\n\n    Music[13] public catalog;\n    bool public stopped = false;\n\n    modifier stopInEmergency {\n        require(!stopped);\n        _;\n    }\n    modifier onlyInEmergency {\n        require(stopped);\n        _;\n    }\n    mapping(uint256 => Artist) public artists;\n    mapping(uint256 => Music) public music;\n    mapping(uint256 => Manager) public managers;\n    modifier checkValue(uint256 _musicid) {\n        _;\n        uint256 _price = music[_musicid].price;\n        uint256 amountToRefund = msg.value - _price;\n        music[_musicid].buyer.transfer(amountToRefund);\n    }\n    modifier onlyArtist(uint256 _artistId) {\n        require(msg.sender == artists[_artistId].artist);\n        _;\n    }\n    modifier forsale(uint256 _musicId) {\n        music[_musicId].musicstate = State.ForSale;\n        _;\n    }\n\n    modifier sold(uint256 _musicId) {\n        music[_musicId].musicstate = State.Sold;\n        _;\n    }\n\n    constructor() public {\n        msg.sender == owner;\n        musicidCount = 0;\n        artistCount = 0;\n        managerCount = 0;\n    }\n\n    /// @notice Adds artist into storage\n    /// @dev function adds parameters and stores into structs\n    /// @return artist Count\n\n    function addartist(\n        string memory _name,\n        string memory _citizenship,\n        uint256 _age\n    ) public returns (uint256) {\n        artistCount++;\n        artists[artistCount] = Artist({\n            name: _name,\n            citizenship: _citizenship,\n            age: _age,\n            artistId: artistCount,\n            artist: msg.sender\n        });\n        emit Logaddartist(_name, _citizenship, _age);\n        return artistCount;\n    }\n\n    /// @notice Adds music into storage\n    /// @dev Has to be an artistnto call function\n    function addmusic(\n        string memory name,\n        string memory genre,\n        string memory m,\n        uint256 price,\n        uint256 artistId\n    ) public onlyArtist(artistId) {\n        musicidCount++;\n        music[musicidCount] = Music(\n            name,\n            genre,\n            m,\n            State.ForSale,\n            price,\n            musicidCount,\n            address(0)\n        );\n        emit Logaddmusic(name, genre, m, price);\n        emit LogForSale(musicidCount);\n    }\n\n    /// @notice Buy music and update state as well as buyer\n    /// @dev Payable function\n    function buymusic(uint256 _musicId, uint256 _artistId)\n        public\n        payable\n        forsale(_musicId)\n        checkValue(_musicId)\n        onlyInEmergency\n    {\n        music[_musicId].buyer = msg.sender;\n        artists[_artistId].artist.transfer(music[_musicId].price);\n        music[_musicId].musicstate = State.Sold;\n        emit LogSold(_musicId);\n    }\n\n    /// @notice Adds manager into storage\n    /// @dev function adds parameters and stores into structs\n\n    /// @return manager Count\n    function addmanager(string memory _name, uint256 salary)\n        public\n        returns (uint256)\n    {\n        managerCount++;\n        managers[managerCount] = Manager({\n            name: _name,\n            addr: msg.sender,\n            salary: salary,\n            managerId: managerCount\n        });\n        emit Logaddmanager(_name, msg.sender, salary);\n        return managerCount;\n    }\n\n    /// @notice hire manager by artist\n    /// @dev payable function\n\n    function hiremanager(uint256 managerid, uint256 periodinmonths)\n        public\n        payable\n        onlyInEmergency\n    {\n        require(periodinmonths > 0);\n        uint256 salarypaid = periodinmonths.mul(managers[managerid].salary);\n        managers[managerid].addr.transfer(salarypaid);\n        emit Loghiremanager(managerid);\n    }\n\n    /* We have these functions completed to run tests as well as fetch data:) */\n\n    function fetchArtist(uint256 _artistid)\n        public\n        view\n        returns (\n            string memory name,\n            string memory citizenship,\n            uint256 age,\n            uint256 artistId,\n            address artist\n        )\n    {\n        name = artists[_artistid].name;\n        citizenship = artists[_artistid].citizenship;\n        age = artists[_artistid].age;\n        artistId = artists[_artistid].artistId;\n        artist = artists[_artistid].artist;\n        return (name, citizenship, age, artistId, artist);\n    }\n\n    /* We have these functions completed to run tests as well as fetch data:) */\n\n    function fetchMusic(uint256 _musicid)\n        public\n        view\n        returns (\n            string memory name,\n            string memory genre,\n            string memory ipfsHash,\n            uint256 musicstate,\n            uint256 price,\n            uint256 musicId,\n            address buyer\n        )\n    {\n        name = music[_musicid].name;\n        genre = music[_musicid].genre;\n        ipfsHash = music[_musicid].ipfsHash;\n        musicstate = uint256(music[_musicid].musicstate);\n        price = music[_musicid].price;\n        musicId = music[_musicid].musicId;\n        buyer = music[_musicid].buyer;\n        return (name, genre, ipfsHash, musicstate, price, musicId, buyer);\n    }\n\n    /* We have these functions completed to run tests as well as fetch data:) */\n\n    function fetchManager(uint256 _managerid)\n        public\n        view\n        returns (\n            string memory name,\n            address addr,\n            uint256 salary,\n            uint256 managerId\n        )\n    {\n        name = managers[_managerid].name;\n        addr = managers[_managerid].addr;\n        salary = managers[_managerid].salary;\n        managerId = managers[_managerid].managerId;\n        return (name, addr, salary, managerId);\n    }\n}\n",
  "sourcePath": "/home/peter/ArtistManagement/contracts/ArtistManagement.sol",
  "compiler": {
    "name": "solc",
    "version": "0.5.8+commit.23d335f2.Emscripten.clang"
  },
  "schemaVersion": "3.0.12",
  "updatedAt": "2020-12-04T14:46:19.324Z",
  "devdoc": {
    "author": "Peter Ndiritu",
    "details": "All function calls are currently implemented without side effects",
    "methods": {
      "addartist(string,string,uint256)": {
        "details": "function adds parameters and stores into structs",
        "return": "artist Count"
      },
      "addmanager(string,uint256)": {
        "details": "function adds parameters and stores into structs",
        "return": "manager Count"
      },
      "addmusic(string,string,string,uint256,uint256)": {
        "details": "Has to be an artistnto call function"
      },
      "buymusic(uint256,uint256)": {
        "details": "Payable function"
      },
      "hiremanager(uint256,uint256)": {
        "details": "payable function"
      }
    },
    "title": "An artist management dapp"
  },
  "userdoc": {
    "methods": {
      "addartist(string,string,uint256)": {
        "notice": "Adds artist into storage"
      },
      "addmanager(string,uint256)": {
        "notice": "Adds manager into storage"
      },
      "addmusic(string,string,string,uint256,uint256)": {
        "notice": "Adds music into storage"
      },
      "buymusic(uint256,uint256)": {
        "notice": "Buy music and update state as well as buyer"
      },
      "hiremanager(uint256,uint256)": {
        "notice": "hire manager by artist"
      }
    },
    "notice": "You can use this contract to manage artist activities on a basic level"
  }
}